:020000040800F2
:1000000000000520517D0008A17D0008A17D0008A9
:10001000A17D0008A17D0008A17D0008000000006E
:10002000000000000000000000000000A17D0008AA
:10003000A17D000800000000A17D0008F167000814
:10004000A17D0008A17D0008A17D0008A17D000818
:10005000A17D0008A17D0008A17D0008A17D000808
:10006000156800081D680008A17D0008A17D000832
:10007000A17D0008A17D0008A17D0008A17D0008E8
:10008000A17D0008A17D0008A17D0008A17D0008D8
:10009000A17D0008A17D0008A17D00082568000859
:1000A000A17D0008A17D0008A17D0008A17D0008B8
:1000B000A17D0008A17D0008A17D0008A17D0008A8
:1000C000A17D0008A17D0008A17D0008A17D000898
:1000D000A17D0008A17D0008A17D0008A17D000888
:1000E000A17D0008A17D0008A17D0008A17D000878
:1000F000A17D0008A17D0008A17D0008A17D000868
:10010000A17D0008A17D0008A17D0008A17D000857
:10011000A17D0008A17D0008A17D0008A17D000847
:10012000A17D0008A17D0008A17D0008A17D000837
:10013000A17D0008A17D0008A17D0008A17D000827
:10014000A17D0008A17D0008A17D0008A17D000817
:10015000A17D0008A17D0008A17D0008A17D000807
:10016000A17D0008A17D0008A17D0008A17D0008F7
:10017000A17D0008A17D0008A17D0008000000000D
:10018000A17D0008A17D0008A17D0008A17D0008D7
:10019000A17D0008A17D0008A17D0008A17D0008C7
:1001A000A17D0008A17D0008A17D0008A17D0008B7
:1001B000A17D0008A17D0008A17D0008A17D0008A7
:0801C000A17D0008A17D0008EB
:1001D00010B5054C237833B9044B13B10448AFF381
:1001E00000800123237010BD7C000020000000006F
:1001F000989F000808B5034B1BB103490348AFF3B0
:10020000008008BD0000000080000020989F0008CA
:1002100053B94AB9002908BF00281CBF4FF0FF316D
:100220004FF0FF3000F072B9ADF1080C6DE904CE6B
:1002300000F006F8DDF804E0DDE9022304B07047C1
:100240002DE9F047089E04468846002B4BD18A4290
:10025000154667D9B2FA82F24AB1C2F1200701FA13
:1002600002F320FA07F7954047EA030894404FEA63
:10027000154E230CB8FBFEF71FFA85FC0EFB178802
:1002800043EA084307FB0CF1994209D9EB1807F13F
:10029000FF3080F01B81994240F21881023F2B44CD
:1002A0005B1AA4B2B3FBFEF00EFB103344EA034426
:1002B00000FB0CFCA44509D92C1900F1FF3380F098
:1002C0000781A44540F2048102382C4440EA0740EB
:1002D000A4EB0C0400271EB1D4400023C6E9004360
:1002E0003946BDE8F0878B4209D9002E00F0EB803B
:1002F0000027C6E9000138463946BDE8F087B3FA61
:1003000083F7002F47D18B4202D3824200F2FA805A
:10031000841A61EB030301209846002EE0D0C6E961
:100320000048DDE702B9FFDEB2FA82F2002A40F0AF
:100330008F80491B4FEA154E1FFA85F80127B1FB44
:10034000FEFC230C0EFB1C1143EA014308FB0CF1DD
:10035000994207D9EB180CF1FF3002D2994200F212
:10036000CD808446591AA3B2B1FBFEF00EFB1014E7
:1003700043EA044408FB00F8A04507D92C1900F112
:10038000FF3302D2A04500F2B6801846A4EB080461
:1003900040EA0C409FE7C7F1200CBB4022FA0CFE5C
:1003A0004EEA030E01FA07F420FA0CF521FA0CF3D9
:1003B0004FEA1E482543B3FBF8F92C0C08FB193310
:1003C0001FFA8EFA44EA034309FB0AF49C4202FA3C
:1003D00007F200FA07F10BD91EEB030309F1FF3016
:1003E00080F087809C4240F28480A9F10209734426
:1003F0001B1BADB2B3FBF8F008FB103345EA034416
:1004000000FB0AFAA24508D91EEB040400F1FF33F1
:100410006BD2A24569D90238744440EA0940A0FB76
:100420000289A4EB0A044C45C2464B4654D351D032
:10043000002E69D0B1EB0A0564EB030404FA0CFC4E
:10044000FD40FC404CEA0505C6E90054002747E79B
:10045000C2F1200320FA03F7954001FA02F021FAD5
:1004600003F34FEA154E3843010CB3FBFEF71FFAB6
:1004700085F80EFB173341EA034107FB08F38B4273
:1004800004FA02F407D9691807F1FF3C2FD28B4216
:100490002DD9023F2944CB1A81B2B3FBFEF00EFBEB
:1004A000103341EA034100FB08F38B4207D9691876
:1004B00000F1FF3C17D28B4215D902382944C91AE2
:1004C00040EA07473BE73746304609E70746E7E695
:1004D0001846FBE64145ABD2B8EB020A69EB0E02C7
:1004E00001381346A4E76046E9E7184695E76746F2
:1004F000D1E781467CE702382C4447E7ACF1020C97
:100500002B442FE7384608E73746E9E6704700BF37
:1005100001F0FF01102A2BDB10F0070F08D010F8B4
:10052000013B013A8B422DD010F0070F42B3F6D1B8
:10053000F0B441EA012141EA014122F007047FF0D1
:1005400000070023F0E80256083C85EA010586EA28
:10055000010685FA47F5A3FA87F586FA47F6A5FA64
:1005600087F68EB9EED1F0BC01F0FF0102F0070270
:1005700032B110F8013B013A83EA010313B1F8D11B
:100580000020704701387047002D06BF35460338FC
:10059000073815F0010F07D1013015F4807F02BF35
:1005A000013015F4C03F0130F0BC0138704700BF86
:1005B000034613F8012B002AFBD1181A01387047A3
:1005C00038B50D4C4FF47A730C490546227808680B
:1005D000B3FBF2F3B0FBF3F000F004FA08B90F2D0F
:1005E00001D9012038BD002229464FF0FF3000F02C
:1005F000B5F96560002038BD04000020100000201F
:1006000008B5032000F096F90020FFF7D9FF05F0A8
:10061000A3FD002008BD00BF034A044B11681B78EE
:100620000B441360704700BF30030020040000201B
:10063000014B1868704700BF3003002038B50446EE
:10064000FFF7F6FF0546631C02D0044B1B781C44E1
:10065000FFF7EEFF401BA042FAD338BD0400002094
:10066000002800F09280F8B5056C0446002D00F0DB
:100670008280236CDB0604D50023012084F83C3003
:10068000F8BD236C4E4A4F491A4023684E4D42F044
:10069000020222644A6822F440324A604A68606872
:1006A00002434A605A68216922F48072D4F808C073
:1006B000E7685A605868A66A40EA0120AE4258606E
:1006C000586820F040705860596841EA0C01596040
:1006D000996821F4006199609A6842EA07029A6079
:1006E00055D09968E06A21F0706199609A68164364
:1006F0009E60996821F0405199609A6802439A601F
:100700009968A56921F0020194F8200099609A681F
:1007100042EA45029A60002842D15A6822F40062F7
:100720005A60D86A0026E56920F4700094F830C059
:100730006A1E6769D8623046DD6A45EA0255DD62A5
:100740009D6825F400759D60996841EA4C21996087
:10075000996821F4806199609A6842EA87229A60D8
:100760006664236C23F0030343F001032364002336
:1007700084F83C30F8BD05F007FD6564236C84F80F
:100780003C50DB063FF578AF7BE7012070479A6865
:1007900022F070629A609A6822F040529A60AFE745
:1007A0005868626A40F40060511E58605A6822F42A
:1007B00060425A605A6842EA41325A60B1E700BF6B
:1007C000FDEEFFFF002301400100000F90F83C30D8
:1007D0000022F0B5012B83B0019200F09A800D68E1
:1007E00001220368092D80F83C20AFB28A6828D81E
:1007F00005EB45064FF0070C1C690CFA06FC02FAE3
:1008000006F624EA0C041C611A6916431E614E6840
:10081000062E06EB86022DD8053A1F24596B94400C
:1008200007FA02F221EA04015963596B0A435A6339
:100830003C4A934230D0002380F83C30184603B045
:10084000F0BD07EB47064FF0070CDC681E3EDFF8F3
:10085000D8E00CFA06FC754524EA0C04DC605BD099
:1008600002FA06F6DA681643DE604E68062E06EBDC
:100870008602D1D90C2E37D8A2F123041F26196B7A
:10088000A64007FA04F221EA060119631C6B14431F
:10089000244A93421C63CED1122D33D0224B9D4269
:1008A00001D0112DC7D1214A1F4953688D4243F40D
:1008B00000035360BFD102F146721D4B02F52E3288
:1008C0001B6802F28332A2FB03239B0C03EB83031E
:1008D0005B000193019B002BADD0019B013B019379
:1008E000019B002BF9D1A6E7A2F141011F26DC6A8A
:1008F0008E4007FA01F224EA0604DC62D96A0A4350
:10090000DA6295E7D2F8043343F48003C2F8043383
:1009100091E7022003B0F0BDDE6846EA0266DE60C1
:1009200075E700BF002001401200001000230140C5
:100930001000002007490002074BCA6800F4E0607D
:1009400010B44FF6FF0422405DF8044B13431843E4
:10095000C860704700ED00E00000FA05174BDB6847
:10096000C3F3022330B4C3F107051C1D042D28BFB7
:100970000425062C18D9033B4FF0FF349C4022EA93
:1009800004044FF0FF32002802FA05F221EA0201C6
:1009900001FA03F242EA04024FEA0212D2B206DB83
:1009A000074B1A5430BC704700242346E9E700F097
:1009B0000F00044B1A5430BC704700BF00ED00E03C
:1009C00000E400E014ED00E0002807DB00F01F0168
:1009D00001234009024A8B4042F82030704700BF93
:1009E00000E100E00138B0F1807F0DD2074B00221A
:1009F000072130B4F025064C5860104684F8235087
:100A00009A60196030BC70470120704710E000E028
:100A100000ED00E0002844D0F8B590F835300446E9
:100A2000002B3BD0626802256369E168102A43EA23
:100A300002032069A66943EA0103A16884F83550DE
:100A400043EA000343EA0103A16AD4E9085043EAF8
:100A50000603266843EA05033768E56A43EA0003AC
:100A6000206B43EA0103104943EA050301EA070149
:100A700043EA00033160316843EA010333600AD07E
:100A8000F3680022012143F01E031046F360E26484
:100A900084F83510F8BDE369B361F1E705F0BAFBFE
:100AA000C0E70120704700BF07F0E0FFF0B490F806
:100AB0003440012C38D0012590F83540866DAC4289
:100AC00080F8345029D104680227002580F8357059
:100AD000456587682568402F25F48025256063607B
:100AE00026D0A160E260C16D3F23026C8B40B360F1
:100AF000236843F016032360636943F08003636156
:100B00001AB1236843F0080323602268002342F0EF
:100B1000010218462260F0BC70470022022380F8D0
:100B200034201846F0BC70470223F0BC18467047CA
:100B3000A260E160D7E700BF2DE9F04FDFF82CC2DB
:100B400083B08E460025DFF82892D1F8008003E0BC
:100B50000135102D00F0B6800123AB4008EA0301F7
:100B60008B42F5D1DEF8044024F01007022F40F04C
:100B7000AC80EF0805F0070A4FF00F0BDEF81020ED
:100B800000EB87074FEA8A0A3E6A0BFA0AFB02FA71
:100B90000AF24FEA450A26EA0B064FF0030B3243EE
:100BA0000BFA0AFB04F003063A626FEA0B020768CD
:100BB00006FA0AF617403E4306608668C4F300173B
:100BC00006EA020BDEF80C60AF4006FA0AF646EAC7
:100BD0000B068660466826EA03031F434760C66823
:100BE000E700DEF8083002EA060203FA0AF343EAF5
:100BF0000203C360ACD5D9F8446025F0030705F0C3
:100C000003030F2246F4804607F180479B00C9F892
:100C1000446007F59C37D9F8446002FA03FA06F4F9
:100C200080460196484E019AB042BA6822EA0A020A
:100C300020D006F58066B0425ED0444EB04260D00F
:100C4000434EB04262D0434EB04264D0424EB042B6
:100C50006BD0424EB0426DD0414EB04260D0414E5A
:100C6000B0426CD0404EB0420CBF09260A2606FAAC
:100C700003F31A43BA60E603DCF800306FEA0102BE
:100C800005F1010554BF13400B43A703CCF8003016
:100C9000DCF8043054BF13400B43E602CCF80430B8
:100CA000DCF8083054BF13400B43A402CCF80830E2
:100CB000DCF80C3054BF13400B43102DCCF80C3033
:100CC0007FF44AAF03B0BDE8F08F4FEA450A032234
:100CD000D0F800B0013F04EA020602FA0AF2012F3E
:100CE0006FEA020206FA0AF602EA0B0B46EA0B0664
:100CF00006603FF674AF60E7012606FA03F31A4375
:100D0000B8E7022606FA03F31A43B3E7032606FA06
:100D100003F31A43AEE7042606FA03F31A43A9E7DE
:100D2000072606FA03F31A43A4E7052606FA03F397
:100D30001A439FE7062606FA03F31A439AE70826A2
:100D400006FA03F31A4395E7000002400008024048
:100D5000000C024000100240001402400018024043
:100D6000001C02400020024000240240003C0140E0
:100D7000003802400369194214BF01200020704767
:100D800002B9090481617047044A5169014200D1E6
:100D9000704708B5506104F0DDFB08BD003C014020
:100DA00000284DD0F8B590F84130044603F0FF021A
:100DB000002B40D02421E568D4E9003284F84110AA
:100DC000012D186822F07061A26820F001001860FF
:100DD0001961996821F40041996028D042F40442D5
:100DE000022D9A6002D14FF400625A605A680021C5
:100DF00014482027A6691043D4E9042558602A43E3
:100E0000D868E56942EA0622266A20F400403543A4
:100E1000D8600846DA601D601A6842F001021A6064
:100E2000616484F84170216384F84210F8BD42F493
:100E300000429A60DAE780F8402005F075FAB9E7D9
:100E4000012070470080000290F84130DBB2202B77
:100E500070B41FD190F84020012A1BD002682424CE
:100E6000002680F841401568344625F001051560DC
:100E7000156825F4805515601568294311601168BF
:100E800041F00101116080F8406080F84130204657
:100E900070BC70470224204670BC704790F8413007
:100EA000DBB2202B70B41ED190F84020012A1AD05A
:100EB00002682424002680F841401468354624F056
:100EC00001041460146824F4706444EA0121116080
:100ED000116841F00101116080F8406080F84130F4
:100EE000284670BC70470225284670BC704700BF7A
:100EF000024A136843F48073136070470070004027
:100F00002DE9F843089D80460F4616469946D8F8C5
:100F1000004001E06B1C09D1A068384214BF0120D9
:100F20000020B042F6D10020BDE8F8832DB1FFF7D4
:100F30007FFBA0EB0900A842E9D90423012088F82F
:100F40004130D8F844300343C8F84430ECE700BFE0
:100F5000F0B5044683B0FFF76BFB002C45D094F846
:100F60004030012B4ED00123054684F8403094F8E0
:100F7000412002F0FF03002A3AD0A76C26682B46D6
:100F8000A16800223568481E202125F4F85545EA5D
:100F90000025204635600097FFF7B2FF00BBE368ED
:100FA0000125D4E907261343D4E900123343174E31
:100FB0000F6843EA026362693E40A7693343144EF7
:100FC0000B6042EA07034F6822693E4043EA02434E
:100FD00033434B600B682B430B60606484F84150D3
:100FE000002384F8403003B0F0BD012003B0F0BD11
:100FF00084F84030204605F0F9F941F288331F4665
:10100000A364BBE7022003B0F0BD00BF2FFFFF00C9
:10101000FEF8E0FF002800F0348103682DE9F0417C
:10102000DD0782B0044635D5AB498A6802F00C0270
:10103000042A00F0FE808A6802F00C02082A00F000
:10104000F4806368B3F5803F10D0002B00F01B8163
:10105000B3F5A02FA04B1A6800F0628122F4803211
:101060001A601A6822F480221A6004E09A4A13680F
:1010700043F480331360FFF7DBFA974D064605E033
:10108000FFF7D6FA801B642800F2EE802B689A03E3
:10109000F6D523689F0742D41A0717D56369002B3A
:1010A00000F0B0808C4B5A6F1D4642F001025A6727
:1010B000FFF7BEFA064605E0FFF7BAFA801B0228E2
:1010C00000F2D2806B6F9B07F6D523685D076BD566
:1010D000814B1A6CD00000F1ED801A6C012542F0B2
:1010E00080521A641B6C03F080530193019B7B4B6D
:1010F0001A68D10540F1A780A368012B39D0002BD5
:1011000000F0DA80052B744B1A6F00F0118122F089
:1011100001021A671A6F22F004021A672EE06E4A63
:10112000916811F00C0F62D0916801F00C01082950
:101130005AD0E368002B00F0DF80674B1A681D4629
:1011400042F001021A60FFF773FA064605E0FFF766
:101150006FFA801B022800F287802B689807F6D56B
:101160002B68226923F0F80343EAC2032B6023684B
:1011700092E7594A136F43F001031367FFF758FAD8
:10118000554E804641F2883705E0FFF751FAA0EB53
:101190000800B84268D8336F9B07F6D525B14E4A90
:1011A000136C23F080531364A369CBB14A4A91684E
:1011B00001F00C01082921D0022B136800F0C08037
:1011C00023F0807314461360FFF732FA054604E0FB
:1011D000FFF72EFA401B022846D823689B01F7D45C
:1011E000002002B0BDE8F08152685602A1D43A4A0C
:1011F000126895073CD5E268012A39D0012002B077
:10120000BDE8F081344B5A6F1D4622F001025A6747
:10121000FFF70EFA064604E0FFF70AFA801B0228E1
:1012200022D86B6F9F07F7D44FE74A6850027FF5CB
:1012300008AF294A126891037FF52CAF6268002A33
:101240007FF428AFDAE71A681E4642F480721A600B
:10125000FFF7EEF907463368DA053FF54DAFFFF7C4
:10126000E7F9C01B6428F6D9032002B0BDE8F0817D
:10127000194920690A6822F0F80242EAC0020A60AD
:101280000AE701207047144B1A681D4622F4803289
:101290001A601A6822F480221A60FFF7C9F906461C
:1012A00004E0FFF7C5F9801B6428DDD82B689B0399
:1012B000F7D4EEE600251AE7074B41F288381A6F9B
:1012C0001E4622F001021A671A6F22F004021A6702
:1012D000FFF7AEF9074608E0003802400070004012
:1012E000FFF7A6F9C01B4045BED8336F9807F7D467
:1012F000002D3FF459AF52E72B4B1A681D4622F0E0
:1013000001021A60FFF794F9064604E0FFF790F92E
:10131000801B0228A8D82B689907F7D42368BBE65E
:1013200042F480221A601A6842F480321A60A2E6FF
:1013300042F004021A671A6F42F001021A671DE7B1
:1013400023F0807315461360FFF772F9064604E038
:10135000FFF76EF9801B022886D82B689901F7D415
:10136000D4E90732606A1343D4E90A2143F00053F9
:101370000D4C520843EA8013013A43EA016343EA01
:1013800002436B602B6843F080732B60FFF750F9CA
:10139000054605E0FFF74CF9401B02283FF664AF15
:1013A00023689A01F6D51BE700380240164908B5B4
:1013B0008B6803F00C03042B1BD0082B17D14A6851
:1013C0004B6802F03F02496813F4800313D10F48C1
:1013D000C1F38811A1FB0001FEF71AFF0A4B5B68FD
:1013E000C3F3014301335B00B0FBF3F008BD0748D2
:1013F00008BD074808BD0648C1F388110023A1FBBA
:101400000001FEF705FFE9E7003802400024F40080
:1014100040787D0178B14A4A136803F00F038B428C
:101420000BD2136823F00F030B431360136803F010
:101430000F038B4201D00120704703682DE9F04172
:101440009D0714D55C0704D53E4CA26842F4E052D7
:10145000A2601A0704D53B4CA26842F46042A26025
:10146000384C8568A26822F0F0022A43A260DF07A8
:1014700004460D4621D54268324B012A1B6856D0DE
:10148000022A59D0990728D52E4941F288388B680D
:101490000E4623F0030313438B60FFF7C9F807469A
:1014A00004E0FFF7C5F8C01B404543D8B368626845
:1014B00003F00C03B3EB820FF3D1214A136803F05E
:1014C0000F03AB420CD9136823F00F032B431360B7
:1014D000136803F00F03AB4202D00120BDE8F08196
:1014E00023685A0706D51749E0688A6822F4E05253
:1014F00002438A601B0711D4FFF758FF114B1249B2
:101500009B68124AC3F30313CB5C20FA03F3002059
:101510001360FFF755F80020BDE8F081094A216902
:10152000936823F4604343EAC1039360E4E79E03B6
:10153000AAD4D2E70320EFE79801A5D4CDE700BFF6
:10154000003C024000380240B4A000081000002017
:10155000044B054A9B680549C3F382230868D35CA2
:10156000D840704700380240C4A000081000002096
:10157000044B054A9B680549C3F342330868D35CB2
:10158000D840704700380240C4A000081000002076
:1015900003682DE9F04313F0010683B004460BD035
:1015A000B84A916821F400019160466B916831431B
:1015B000B6FA86F67609916013F4002510D0B14989
:1015C000E56BD1F88C20B5F5801F22F4401242EA79
:1015D0000502C1F88C2000F0B081B5FA85F56D09DF
:1015E000D90210D5A748216CD0F88C20B1F5800F16
:1015F00022F4400242EA0102C0F88C2000F09B81F4
:10160000002908BF012513F0807F18BF01269A0624
:1016100000F14981D9060CD59A4AD2F88C1021F0F4
:101620008071C2F88C10D2F88C10A06B0143C2F804
:101630008C105A0408D59349606ED1F8902022F49A
:1016400040320243C1F890201F0408D58D49A06E96
:10165000D1F8902022F440220243C1F89020D80310
:1016600008D58849E06ED1F8902022F44012024358
:10167000C1F89020990308D58249206FD1F89020B5
:1016800022F440020243C1F890205A0608D57D4951
:10169000606CD1F8902022F003020243C1F8902040
:1016A0001F0608D57749A06CD1F8902022F00C02D3
:1016B0000243C1F89020D80508D57249E06CD1F8F2
:1016C000902022F030020243C1F89020990508D5FD
:1016D0006C49206DD1F8902022F0C0020243C1F87D
:1016E00090205A0508D56749606DD1F8902022F402
:1016F00040720243C1F890201F0508D56149A06DD2
:10170000D1F8902022F440620243C1F89020D8041E
:1017100008D55C49E06DD1F8902022F44052024394
:10172000C1F89020990408D55649206ED1F8902030
:1017300022F440420243C1F890205A0208D5514990
:10174000A06FD1F8902022F080620243C1F890206F
:101750009F020CD54B49E06FD1F89020B0F1006F9B
:1017600022F0006208BF01250243C1F8902013F067
:10177000080F18BF0125580308D54249606FD1F8FA
:10178000902022F040720243C1F8902019020BD43D
:10179000B3F1007F16D0F20714D4012D00F0D080F1
:1017A000002003B0BDE8F0833649B3F1007FD4F8E0
:1017B0008000D1F8902022F0805242EA0002C1F865
:1017C0009020E8D12F4B1A681E4622F080621A60E2
:1017D000FEF72EFF074604E0FEF72AFFC01B642831
:1017E0005DD833681B01F7D42368DF0712D5626B1D
:1017F00082B9D6F88420D6F8847002F4403260684A
:1018000007F07067A1683A4342EA801242EA017227
:10181000C6F884201E0300F11181D80204D5226C81
:10182000B2F5800F00F00F81D90111D5154E606817
:10183000D6F88420D6F8847002F07062216907F02F
:10184000E0473A4342EA801242EA0142C6F8842065
:101850009A010DD5236962681B04D4E9021043EA9A
:101860008213084A43EA006343EA0173C2F88430F2
:10187000044B1A681E4642F080621A60FEF7D8FEDA
:10188000074606E000380240FEF7D2FEC01B64287F
:1018900005D833681B01F7D5012D81D150E0032015
:1018A00003B0BDE8F083874A874B116C1F4641F0B7
:1018B00080511164126C02F080520192019A1A68F0
:1018C00042F480721A60FEF7B3FE804605E0FEF730
:1018D000AFFEA0EB08006428E1D83B68DB05F6D535
:1018E000784A236B116F03F4407011F4407111D0EA
:1018F00088420FD0116F176F21F4407147F4803781
:101900001767176F27F4803717671167116FCF07B5
:1019100000F1C380B0F5407F00F0B18069498A686A
:1019200022F4F8128A60674AC3F30B03116F0B436A
:10193000136723686EE6012665E6002501264FE65B
:10194000604B1A681D4622F080521A60FEF770FE46
:10195000064604E0FEF76CFE801B64289FD82B68C7
:101960009F00F7D423681D0300F19280D8021DD593
:10197000226CDAB953496569D1F88820D1F88860BA
:1019800002F44032A06906F0E046324342EA851292
:1019900042EA0062C1F88820D1F88C20A06A22F4C3
:1019A000F852013842EA0022C1F88C20990215D57C
:1019B000E26FB2F1006F11D142496569D1F8882018
:1019C000D1F8886002F07062206A06F0E046324387
:1019D00042EA851242EA0042C1F888201A0719D566
:1019E000384A6569D2F88810D2F8883001F0706101
:1019F000E06903F440330B4343EA851343EA007381
:101A0000C2F88830D2F88C30E16A23F440330B43BB
:101A1000C2F88C302B4B1A681C4642F080521A6078
:101A2000FEF706FE054605E0FEF702FE401B6428B1
:101A30003FF635AF23689B00F6D5B1E6E26BB2F511
:101A4000801F7FF4EAAE1F4E6068D6F88420D6F877
:101A5000847002F44032E16807F0E0473A4342EA1A
:101A6000801242EA0162C6F88420D6F88C10626ABD
:101A700021F01F01013A0A43C6F88C20D4E6114830
:101A800012498268194022F4F8120A4382604AE738
:101A9000E26B002A3FF46EAF68E7174641F28838E0
:101AA000FEF7C6FD814606E0FEF7C2FDA0EB090089
:101AB00040453FF6F4AE3B6F9807F5D5236B03F432
:101AC000407027E70038024000700040FFFCFF0F25
:101AD000037F012B00F0D78002232DE9F04105465A
:101AE00001202F6828776B77002A4DD0BC6814F04E
:101AF000400E00F0C2800C7B4FEA044E0B6A8C69EA
:101B00008A781C430B7814434A7844EA034491F8DA
:101B1000243044EA022444EA036444EA0E048B6A53
:101B2000CA205322D1F80480CE69B3F5807F786251
:101B30007A6248EA0608BB6800F0818023F40073EB
:101B4000BB60BB6823F40053BB60FEF771FD074622
:101B500005E0FEF76DFDC01BB0F57A7F66D82A68F8
:101B6000D66816F00206F4D01462C2F84880936872
:101B700043F4007393600023FF2001215062184654
:101B800069772B77BDE8F081BE6816F0400C77D0FE
:101B900091F80CC04FEA0C4C0B7800200E6A092B10
:101BA00006D90A3B0130DBB2092BFAD80001C0B2DA
:101BB00018434B780024092B4FEA004006D90A3B12
:101BC0000134DBB2092BFAD82401E4B223438C7828
:101BD000092C4FEA03235AD94FF0000E0A3C0EF1AC
:101BE000010EE4B2092CF9D84FEA0E1E5FFA8EF806
:101BF00091F824E044EA0804BEF1090F45D9AEF19A
:101C00000A0E01325FFA8EFEBEF1090FF7D81201FB
:101C1000D2B24EEA020E8A69164346EA0C0C4CEA2E
:101C2000000003431C4344EA0E6478E703232A6858
:101C3000FF21184651622E776B77BDE8F08123F4BF
:101C40008073BB60BB6823F48053BB60FEF7F0FC7D
:101C5000074605E0FEF7ECFCC01BB0F57A7FE5D83F
:101C60002A68D66816F00106F4D0D461C2F8448020
:101C7000936843F4807393607DE781F80CE03DE75F
:101C800081F80CC088E7022070470022C1E74FF0BE
:101C90000008ADE7026838B5D368044623F0A00316
:101CA000D360FEF7C5FC054605E0FEF7C1FC401B0E
:101CB000B0F57A7F05D82368DB689B06F5D5002050
:101CC00038BD032038BD00BF38B50368DA68520656
:101CD00001D5002038BD4FF0FF320446DA60FEF730
:101CE000A7FC05462368DB685B06F2D4FEF7A0FC80
:101CF000401BB0F57A7FF5D9032038BD002841D0CC
:101D0000F8B5437F044603F0FF02002B36D00220D3
:101D10002368CA2153226077204659625A62FFF72E
:101D2000D3FF20BB2368FF2517499E6862683140B6
:101D30002669A76832436669996032439E68E16804
:101D4000324301269A601961196941EA0741A7697E
:101D50001961D96821F08001D960D96C21F008019E
:101D6000D964DA6C3A43DA645D626677F8BD22685A
:101D7000FF210423012051626377F8BD027704F04C
:101D8000A1FBC4E701207047BFFF8FFFF8B5037FB9
:101D9000012B7CD00D4602230121066843770446BF
:101DA0000177B768002A33D017F040076BD02F7B3C
:101DB0003F0468782A780002AB7840EA0240184372
:101DC0000743CA225323204672627362FFF77CFFE7
:101DD000064600284DD1374923683940D5E904200B
:101DE00019609968024321F48021996099680A4337
:101DF0009A60DA6822F08002DA609A68920649D521
:101E0000FF20012100225862617722773046F8BD19
:101E100017F0400739D02F7B3F042B780021092B86
:101E200006D90A3B0131DBB2092BFAD80901C9B244
:101E300019436B780020092B4FEA014106D90A3B70
:101E40000130DBB2092BFAD80001C0B20343A878F5
:101E500009284FEA03232BD90A380132C0B20928D6
:101E6000FAD81201D2B20F4310433B4343EA0007B2
:101E7000A7E72168FF200422002301264862627739
:101E800023773046F8BD2F7393E72F73C5E70226FB
:101E90003046F8BD2046FFF7FDFE08B92368AFE7DE
:101EA0002268FF2104235162267701266377ADE77C
:101EB0000022D8E77F7F7F00037F012B70B56AD0B7
:101EC0000546022301206B7728770E78CB787603BE
:101ED00048788C7812B346EA03431C4344EA002452
:101EE0002B68CA215322284659625A62FFF7ECFE3A
:101EF0000646002845D1314A2B6822405A60DA68EC
:101F000022F08002DA609A68920647D5FF2001210C
:101F10000022586269772A77304670BD10F0100FA2
:101F200004D020F010000A30C0B24870092B4FF0E6
:101F3000000106D90A3B0131DBB2092BFAD80901AD
:101F4000C9B20B4309284FF000014FEA034306D9F9
:101F50000A380131C0B20928FAD80901C9B20843C8
:101F6000092C4FEA002127D90A3C0132E4B2092C9E
:101F7000FAD81201D0B21E43044346EA01000443DA
:101F8000AEE72968FF2004220023012648626A7711
:101F90002B77304670BD0226304670BD2846FFF7CD
:101FA00079FE08B92B68B1E72A68FF210423516242
:101FB0002E7701266B77AFE70020DCE73FFFFF00BD
:101FC000037F012BF0B421D003680226CA255324D5
:101FD0004677FF269F685D625C62A4F65C04DD6C58
:101FE0003C40012725F006050C43DD64D96C0A430B
:101FF0000021DA640D469C609A6842F400629A609F
:102000005E62477701772846F0BC70470225284674
:10201000F0BC70472DE9F0470D4686B004461646E1
:102020001F46FEF705FB75B3804694F83400C0B236
:10203000012807D0A36B012043F00053A36306B02F
:10204000BDE8F087F319E26D00219342A16322D825
:10205000636C03222068012B84F83420C1624FF4A2
:10206000007118BF760201F051FC0346D0B122681E
:1020700040F2FF5001219063A26B08461343A36313
:1020800084F83410DBE7A36B012043F00063A36303
:1020900006B0BDE8F087A36B43F00073A36306B0FE
:1020A000BDE8F0874FF0FF31780290224FF0010A2F
:1020B0004FF0020900910190694620680493CDF821
:1020C00014A0CDE9022901F00BFC574533D9C4F81F
:1020D00030903146206801F03BFC0246236852B143
:1020E0001EE00E9B7BB3FEF7A3FA0E9BA0EB08004D
:1020F000984228D223685A6B12F4957F5A6B2FD1DD
:102100001204EED52E1F05F11C0900E023681846C5
:1021100001F0C8FB46F8040F4E45F7D12035E0E743
:1021200040F2FF50012198630846A36B1A43A26353
:1021300084F8341083E7C4F830A03146206801F0F9
:10214000F5FB0246CAE7236840F2FF510122032053
:102150009963A36B43F00043A36384F834206EE7D4
:10216000D6050BD5012F09D9626C032A06D0184673
:1021700001F022FC23680146002856D15A6B100753
:1021800022D45A6B91072BD45A6B92060FD533E0A9
:1021900001F088FB0E9B45F8040B002B38D0FEF7AE
:1021A00047FA0E9BA0EB0800984231D223685A6B85
:1021B000184612F40012EBD140F2FF5501211046EF
:1021C0009D6384F834103AE740F2FF51012299638D
:1021D0001046A36B43F00803A36384F834202EE772
:1021E00040F2FF51012299631046A36B43F00203B2
:1021F000A36384F8342022E740F2FF51012299635F
:102200001046A36B43F02003A36384F8342016E741
:10221000236840F2FF5101229963A36B104643F0FB
:102220000043A36384F8342009E740F2FF50012201
:1022300098631046A36B0B43A36384F83420FEE637
:102240002DE9F0410D4686B0044616461F46FEF7BE
:10225000EFF9002D38D0804694F83400C0B2012840
:1022600007D0A36B012043F00053A36306B0BDE881
:10227000F081F319E26D00219342A1632CD8636CC5
:1022800003222068012B84F83420C1624FF40071CE
:1022900018BF760201F03AFB034620BB012F2068ED
:1022A0002DD920233146236301F074FB03462068B7
:1022B00063B340F2FF52012182630846A26B1343CD
:1022C000A36384F83410D1E7A36B012043F00063CB
:1022D000A36306B0BDE8F081A36B43F00073A36372
:1022E00006B0BDE8F081226840F2FF500121906302
:1022F000A26B08461343A36384F83410B6E7102397
:102300003146236301F036FB0346D0E779024FF0F4
:10231000FF3690220191694600960292CDE903337F
:102320000123059301F0DCFA08E00C9BDBB1FEF71A
:102330007FF90C9BA0EB0800984214D223685A6BDB
:1023400012F48D7F5A6B19D15604EED505F1200693
:1023500000E0236829460435184601F0A7FAAE428A
:10236000F7D13546E1E7226840F2FF51012303200F
:102370009163A26BA26384F8343077E7D0050BD564
:10238000012F09D9626C032A06D0184601F014FB0C
:1023900023680146002835D15A6B110712D45A6BB5
:1023A00092071BD45A6B12F0100223D040F2FF5157
:1023B000012299631046A36B43F01003A36384F8D2
:1023C000342053E740F2FF51012299631046A36B7A
:1023D00043F00803A36384F8342047E740F2FF5139
:1023E000012299631046A36B43F00203A36384F8B0
:1023F00034203BE740F2FF55012110469D6384F8ED
:10240000341033E740F2FF50012298631046A36B6B
:102410000B43A36384F8342028E700BF436E9A0F70
:10242000F0B50A70C3F38367C3F30165C3F30744D0
:10243000C3F30722DBB24F7000268D70CC700A7197
:102440004B71836E1D0EC3F30354C3F307222D019A
:102450004FEAD21CCD80C3F30345CF883C43C2F37F
:102460008017CC80C2F300140D72C2F3401581F8BE
:1024700009C08F72CD720C734E73446C002C40F007
:1024800088809202C46E9B00012502F44062E60B34
:1024900003F47F73C4F3026C0A6106F006060A694E
:1024A000C4F34257C4F3C26E1A430A61C4F38242B2
:1024B0000B6943EA94730B61C4F3072381F814E0BA
:1024C00081F815C0C4F3C03C8F754FF40077CA750E
:1024D0000E760A7E42EA0C020A760A690E7E2A44C9
:1024E0000236B24042650E7A0766B5406E0A8565CF
:1024F00002FB06F2C2655D00C3F38012C4F3C0178D
:1025000004F07F0305F07E044A7600258C768A7EEF
:102510002E463A4301278A76CB76036FDA0FC3F350
:1025200041709C0DC3F3405C0A77C3F3826204F0F0
:102530000C0448778A77C3F38150CC77C3F3004407
:10254000CA7F0243C3F3C030CA77C3F3803281F835
:1025500020C081F82150C3F3403581F82240C3F3F5
:10256000003481F82300C3F3812081F82420C3F3D1
:102570000122C3F3460381F8255081F8264081F8F3
:102580002700304681F8282081F8293081F82A7008
:10259000F0BD012C0DD0036840F2FF510122996378
:1025A000836B164643F08053836380F834203046B3
:1025B000F0BD1A04C46E4FF4007602F47C12230EB0
:1025C0000A61C4F307420D6945EA0325C4F30723F2
:1025D0000D610D692A430A610A6986650132066642
:1025E00092024265C26586E770B598B000257621F3
:1025F00004460AAA06680A9507AB0995CDE90B516E
:1026000007CACDE907558DE8070030460ECB01F02B
:102610002DF923685A68184622F480725A6001F036
:102620004BF922680220536843F480735360FEF72D
:1026300005F82068069501F0E5F9054638B1012056
:1026400084F83400A36B1D43A56318B070BD2068E7
:1026500001F004FA00284BD04FF6FF76A564069BE4
:1026600000215A1CB342069200F0B580206801F0A8
:1026700035FA002840F0B2800146206801F040FAA7
:10268000002840F0AB800146206801F01FF90028C7
:10269000E5DA0023636401232068ADF8163001F009
:1026A00011F9002800F09480626C2368032A42D15B
:1026B0001846042101F00AF90DA9030D2046E36430
:1026C000FFF7ACFE226D00232068120401F088F9A8
:1026D00005460028B3D1231D54F8106B94E8070079
:1026E0008DE8070030460ECB01F0C0F82846ACE775
:1026F00001234FF6FF76A364069B00215A1CB342C8
:10270000069268D0206801F0E9F94FF08041054653
:10271000002894D1206801F0F3F9054600288ED1F5
:102720000146206801F0D2F80028E5DA4300B0D570
:1027300001236364AFE7184601F0F4F90546002869
:102740007FF47DAF0146206801F0C0F80421606786
:10275000206801F0BBF80821A067206801F0B6F8F6
:102760000C21E067206801F0B1F8636CC4F88000C8
:10277000032B36D00DF11601206801F0F3F9054660
:1027800000287FF45CAF626C2368032A90D0BDF808
:10279000161018462165090401F0D4F905460028F1
:1027A0007FF44DAF0146206801F090F80421606687
:1027B000206801F08BF80821A066206801F086F8F7
:1027C0000C21E066206801F081F8236820676FE73C
:1027D0004FF0806533E74FF0807530E74FF080555C
:1027E0002DE7236864E700BFC0B190F8343010B51E
:1027F00003F0FF0204466BB10323204684F8343013
:10280000FFF7F2FE00230122A3631846236384F836
:10281000342010BD027703F063FEEDE7012070471E
:102820000346002030B4D3E91125DC6C0A601A6D30
:102830004D605D6D8C609C6DCA60D3E91723C1E962
:102840000454C1E9062330BC704700BF016D10B5C8
:1028500009040446006801F0E5F9014620B1A36BC4
:1028600000201943A16310BD206801F02FF8C0F3C8
:10287000432010BD00285DD0002290F85D302DE986
:10288000F0418262044603F0FF02002B4DD0E7685E
:1028900002232268B7F5E06F84F85D3027F4006109
:1028A000136894BF4FF48055002523F04003B1F521
:1028B000E06F136035D1A66A236B2BB9B7F5E06FD3
:1028C0008CBF022301232363A1684FF000086368D3
:1028D00020690B43616903430B43D4E906010B43B1
:1028E000616A4FEA104C00F4007E0F43216A0CF03D
:1028F000040C40460B43616B0F4343EA0E034FF059
:10290000010E47EA0C0733433D4313605560D3691A
:1029100023F40063D361C4F8608084F85DE0BDE80F
:10292000F08100231E46A362C6E780F85C2003F016
:1029300025FEACE701207047F0B4046A8D6824F0EE
:1029400001040E68124A0462036A446823F0020319
:1029500087692B430F4D3A40A84242EA06020AD04B
:1029600005F58065A84206D04968446082614163EC
:102970000362F0BC704723F00803CF684D6924F46C
:1029800040748E693B43354323F004032C43EBE74B
:102990008CFFFEFF00000140F0B4046A8D6824F44F
:1029A00080740E68144A0462036A446823F4007356
:1029B000C76943EA0523114D3A40A84242EA06029C
:1029C0000AD005F58065A84206D049684460C26116
:1029D000C1630362F0BC704723F40063CF684D69A4
:1029E00024F440548E6943EA0723354323F480637B
:1029F00044EA0514E9E700BF8CFFFEFF0000014038
:102A0000F0B4046A8D6824F480540E680F4A04629E
:102A1000036A446823F40053C76943EA05330C4D45
:102A20003A40A84242EA06220AD005F58065A8424B
:102A300006D049684460C26101640362F0BC70471B
:102A400024F480444D6944EA8514F2E7FF8CFFFECC
:102A500000000140F0B4046A8D6824F480340E68EC
:102A60000F4A0462036A446823F40033476D43EA63
:102A700005430C4D3A40A84242EA06020AD005F549
:102A80008065A84206D0496844604265816503625A
:102A9000F0BC704724F480344D6944EA0524F2E721
:102AA0008FFFFEFF00000140F0B4046A8D6824F43B
:102AB00080140E680F4A0462036A446823F400130A
:102AC000476D43EA05530C4D3A40A84242EA0622BC
:102AD0000AD005F58065A84206D049684460426581
:102AE000C1650362F0BC704724F480244D6944EA58
:102AF0008524F2E7FF8FFFFE00000140704700BF12
:102B000090F83C30012B5BD002460220136870B471
:102B100082F83D00012598684C4C82F83C500440F6
:102B2000086840289C6076D04CD960282FD058D9AE
:102B300070281BD0B0F5005F0FD1CC68D1E90150EF
:102B400040EA0501986841EA042120F47F400143EE
:102B50009960996841F480419960002301211846E9
:102B600082F83D1082F83C3070BC7047D1E90150CA
:102B7000CC6840EA0501986841EA042120F47F40CE
:102B800001439960996841F077019960E5E71C6A13
:102B90004D6824F01004CE681C629869196A20F40C
:102BA000704021F0A00140EA063041EA0511986129
:102BB0001962996821F0700141F067019960CCE7D2
:102BC00002207047102804D03DD9202801D0302899
:102BD000C3D1996840F0070021F070010843986064
:102BE000BBE75028B9D11D6A1C6A486825F00A0560
:102BF00024F00104CE6828431C62996921F0F00199
:102C000041EA061199611862996821F0700141F05A
:102C100057019960A1E71D6A1C6A486825F00A05FA
:102C200024F00104CE6828431C62996921F0F00168
:102C300041EA061199611862996821F0700141F02A
:102C40004701996089E70028C3D086E78800FEFF26
:102C5000F0B4324EB0F1804F314FA0EB060603685E
:102C6000A0EB0707B6FA86F6B7FA87F74FEA5616CB
:102C70004FEA571725D026BB2A4A90423ED002F58C
:102C8000806290423AD002F5806290423BD0002FA1
:102C900039D1254A904218D002F58062904214D072
:102CA00002F58062904210D0A2F5983290420CD08A
:102CB00002F58062904208D002F58062904208D10D
:102CC00003E023F070034D682B4323F44073CD6879
:102CD0002B434A6923F080038C6813430A6803601E
:102CE000C462826226B91FB90123F0BC43617047F8
:102CF0000B6903630123F0BC4361704723F0700349
:102D00004A681343E1E7094A23F070034C68904294
:102D100043EA0403D9D0002FD7D1BAE7000001401D
:102D2000000401400004004000400140000C00404D
:102D3000B8B190F83D3010B503F0FF0204465BB126
:102D400002232068211D84F83D30FFF781FF012315
:102D5000002084F83D3010BD80F83C2003F054FC86
:102D6000EEE70120704700BFB8B190F83D3010B5D4
:102D700003F0FF0204465BB102232068211D84F8A2
:102D80003D30FFF765FF0123002084F83D3010BD82
:102D900080F83C20FFF7B2FEEEE70120704700BF4D
:102DA000F0B4046A8D6824F010040E68144A0462BA
:102DB000036A446823F02003876943EA0513114D31
:102DC0003A40A84242EA06220AD005F58065A842A8
:102DD00006D049684460826181630362F0BC704739
:102DE00023F08003CF684D6924F440648E6943EA80
:102DF0000713354323F0400344EA8504E9E700BFA5
:102E0000FF8CFFFE0000014038B590F83C30012BEC
:102E100000F08D800D4602230121044680F83D30EC
:102E200080F83C10142A1DD8DFE802F00B1C1C1C93
:102E3000371C1C1C4A1C1C1C5C1C1C1C6F1C1C1CF6
:102E4000240029460068FFF777FD236828699969FF
:102E500041F008019961996921F0040199619A6929
:102E600002439A6100230122184684F83D2084F829
:102E70003C3038BD29460068FFF716FE23682869F4
:102E8000596D41F400615965596D21F480615965AE
:102E90005A6D42EA00225A65E4E729460068FFF7C6
:102EA0007FFF23682869996941F4006199619969F4
:102EB00021F4806199619A6942EA00229A61D1E71E
:102EC00029460068FFF768FD23682869D96941F041
:102ED0000801D961D96921F00401D961DA69024395
:102EE000DA61BFE729460068FFF78AFD2368286991
:102EF000D96941F40061D961D96921F48061D9614E
:102F0000DA6942EA0022DA61ACE729460068FFF795
:102F1000A1FD23682869596D41F008015965596D73
:102F200021F0040159655A6D02435A659AE702205F
:102F300038BD00BF90F83C30012B25D00268022339
:102F400070B4134D80F83D30AA425368946816D08F
:102F500005F58065AA4212D00D6824F080048968C6
:102F600023F0700301262B43214300255360916019
:102F700080F83D6080F83C50284670BC704723F4D0
:102F800070034D682B43E7E702231846704700BFE4
:102F900000000140F8B5466F202E3BD100293BD000
:102FA000B2FA82F77F09002F36D190F87040012CD9
:102FB00030D01346054621220124D0F868E0A0F85D
:102FC0005230E964C767A0F85030426780F870401B
:102FD0000268BEF1000F12D0DFF854C02832134847
:102FE000CEF840C0DFF84CC0CEF83C007046CEF8BA
:102FF0005070CEF84CC0FDF759FD78B92A684023CF
:10300000002113620846936885F8701043F080032E
:103010009360F8BD0220F8BD0120F8BD102385F8AB
:1030200070702046EB676E67F8BD00BF3D3000084A
:103030006D3000087D300008704700BF08B5C369D7
:10304000806BB3F5807F0CD003680022A0F852207B
:103050009A6822F080029A601A6842F040021A6070
:1030600008BDFFF7E9FF08BD704700BF08B5806BDA
:10307000FFF7FAFF08BD00BF704700BF836B1A68F7
:1030800010B55C6F986F9168090601D5212C1BD093
:103090009168490601D5222807D0DA6F184642F018
:1030A0001002DA67FFF7E8FF10BD00202024A3F824
:1030B0005A00116821F490711160916821F00101AA
:1030C000916018669C67E8E700212024A3F852105D
:1030D000116821F0C00111605C67D9E7F8B50446BA
:1030E0008368AF49E669E768AE4DD0E904201A432A
:1030F000236802431868AB4201EA000142EA060273
:1031000042EA0102A1691A605868226A20F440501C
:1031100042EA010240EA07005860996821F43061F0
:1031200042EA01029A6041D09F4A93421BD09F4AD3
:10313000934200F0B1809E4A934200F0DF809D4AA6
:10314000934253D09C4A934200F0BE809B4A9342E4
:1031500000F005819A4A934200F01181002301207A
:10316000C4E91833F8BD02F5FA32964BD2F8902034
:1031700002F00C0213441B79B6F5004F1ED0082B49
:10318000ECD801A252F823F0873200081932000867
:10319000373300085D310008DF3200085D31000878
:1031A0005D3100085D310008B9320008864B854A60
:1031B000D3F8903003F00303D35CDDE7082BCDD8C0
:1031C00001A252F823F000BFF13200084332000898
:1031D000173300085D310008F73200085D31000840
:1031E0005D3100085D31000827330008764BD3F8C5
:1031F000903003F44073B3F5807F6DD03DD9B3F5C3
:10320000007F00F08580B3F5407F52D0A6E7002B09
:10321000A4D1B6F5004F14D0FEF7AAF9626800EB0E
:103220005203B3FBF2F39BB2A3F110014FF6EF721E
:10323000914293D822680020D3600023C4E9183358
:10324000F8BDFEF795F96268530803EB4003B3FB42
:10325000F2F39BB2A3F110014FF6EF7291423FF6E9
:103260007DAF23F00F02C3F3420321680020134314
:10327000CB600023C4E91833F8BD002B7FF46EAF98
:10328000B6F5004F34D0FEF763F9626800EB5203E5
:10329000B3FBF2F39BB2C7E74B4BD3F8903003F08C
:1032A0003003102B18D0E8D9202B31D0302B7FF4ED
:1032B00055AFB6F5004F36D06268530803F50043AA
:1032C000B3FBF2F39BB2AFE73F4BD3F8903003F47C
:1032D0004063B3F5806F36D1B6F5004F0BD0FEF7E3
:1032E00065F8626800EB5203B3FBF2F39BB29BE715
:1032F000FEF72EF9A7E7FEF759F8A4E7324BD3F80B
:10330000903003F0C003402BE6D0B6D9802B23D1F8
:10331000B6F5004F0FD162682C4B03EB5203B3FBA1
:10332000F2F39BB296E76268530803F58033B3FB70
:10333000F2F39BB28EE76268254B03EB5203B3FBBB
:10334000F2F39BB270E77FF662AFB3F5006FDFD0A8
:10335000B3F5406FADD001E7C02BAAD0FEE61A4B03
:10336000D3F8903003F44053B3F5805FB4D084D9E0
:10337000B3F5005FCCD0B3F5405F9AD0EEE6124BC8
:10338000D3F8903003F44043B3F5804FA4D07FF6D8
:1033900074AFB3F5004FBBD0B3F5404F89D0DDE635
:1033A000F369FFEF00100140004400400048004076
:1033B000004C0040005000400014014000780040E4
:1033C000007C0040B09F0008003802400048E8013F
:1033D0000024F400436ADA0710B406D50168846A51
:1033E0004A6822F4003222434A609C0706D50168ED
:1033F000C46A4A6822F4803222434A60590706D5DB
:103400000168046B4A6822F4802222434A601A074A
:1034100006D50168446B4A6822F4004222434A60A0
:10342000DC0606D50168846B8A6822F48052224348
:103430008A60990606D50168C46B8A6822F4005236
:1034400022438A605A060AD50168046C4A68B4F5BA
:10345000801F22F4801242EA04024A600BD01B064D
:1034600006D50268816C536823F400230B43536034
:103470005DF8044B70474A68446C22F4C002224352
:103480004A60ECE72DE9F843089D80460F46164652
:103490009946D8F8004001E06B1C0AD1E06937EA90
:1034A00000030CBF01200020B042F5D00020BDE891
:1034B000F883FDF7BDF8A0EB0900A84201D8002D64
:1034C000E7D1D8F800302021002403201A6822F424
:1034D000D0721A609A6822F001029A60C8F87410DB
:1034E00088F87040C8F87810E1E700BF2DE9F04196
:1034F0001F46436F84B0202B3ED10D4600293FD09C
:10350000B2FA82F603927609002E39D190F8703023
:103510000446012B30D021230121C66780F87010AA
:103520004367FDF785F8A368039A8046B3F5805F8B
:10353000A4F85020A4F8522009D136E015F8012B48
:103540009A62B4F85230013B9BB2A4F85230B4F8FE
:10355000523000979BB2DBB14346002280212046C7
:10356000FFF790FF80B92368002DE7D136F8022BD2
:10357000C2F308029A62E4E7022004B0BDE8F081D9
:10358000012004B0BDE8F081032004B0BDE8F08163
:103590004346002240212046FFF774FF0028F3D164
:1035A000202384F870006367E7E72369002BCED1FE
:1035B0002E461D46CBE700BF70B50025044682B0FD
:1035C000C567FDF735F822681268130708D4002391
:1035D00020221846626784F87030A26702B070BD7E
:1035E0006FF07E4603462A464FF4001100962046AF
:1035F000FFF748FF0028EAD0032002B070BD00BFEB
:1036000070B3436F10B50446FBB1226824232046F3
:103610006367136823F001031360FFF75FFD012860
:1036200018D0636AC3B9236820465A6822F49042CE
:103630005A609A6822F02A029A601A6842F00102DF
:10364000BDE810401A60FFF7B7BF80F8703003F094
:103650005FF8DAE7012010BD2046FFF7BBFEE2E786
:1036600001207047174A014641F28833126810B4AE
:10367000154CA4FB0202520A03FB02F303E04A6B5F
:1036800012F0450F07D113F1FF33F8D24FF000408D
:103690005DF8044B70474B6B5B070ED4486B10F022
:1036A000010005D140F2FF535DF8044B8B63704776
:1036B00001205DF8044B8863704704205DF8044BDB
:1036C0008863704710000020D34D6210134A0146F2
:1036D00041F28833126810B4114CA4FB0202520A62
:1036E00003FB02F303E04A6B12F0450F07D113F11D
:1036F000FF33F8D24FF000405DF8044B7047486B41
:1037000010F0040005D140F2FF535DF8044B8B63C9
:10371000704704205DF8044B886370471000002058
:10372000D34D62104E4B10B41B6883B04D4CA4FBBC
:1037300003435B0A02FB03F2A2B1436B013A13F0AD
:10374000450FF9D0436B5A0719D4426B12F00102AE
:103750000ED10369DBB2994218D0012003B05DF8A5
:10376000044B70474FF0004003B05DF8044B7047C6
:1037700001238363184603B05DF8044B70470423AC
:103780008363184603B05DF8044B704740F2FF5462
:1037900000F11401344B846301920191019A126883
:1037A00013404BB3002A2BDB530027D494002AD4B8
:1037B000D1002AD413012BD454012CD4D10130D4FC
:1037C00013022BD4540232D491022DD4D30237D415
:1037D000540332D491033FD4D3033AD4140435D4E0
:1037E000510430D4930425D412F0080F14BF4FF4C1
:1037F00000004FF48030B7E71846B5E74020B3E744
:103800004FF00070B0E78020AEE74FF48070ABE778
:103810004FF40070A8E74FF48060A5E74FF48050A4
:10382000A2E74FF400609FE74FF480409CE74FF41D
:10383000005099E74FF4800096E74FF4003093E78B
:103840004FF4004090E74FF400108DE74FF48010E4
:103850008AE74FF4002087E74FF4802084E700BF19
:1038600010000020D34D621008E0FFFD84B070B45A
:1038700004AE079C0546002086E80E000B46DDE9F5
:1038800005211343089A0B43099923436C6813439A
:10389000034A0B43224013436B6070BC04B0704773
:1038A0000081FFFFD0F88000704700BF03460A6820
:1038B0000020C3F8802070470346032200201A60CE
:1038C000704700BF006800F003007047143082B0FA
:1038D0000023014401930191019B186802B07047D5
:1038E00030B402460C680020D1E902352B434D6804
:1038F00054620C69956223434D69D46A2B4324F0CA
:10390000F7010B4330BCD362704700BF30B4064BA5
:1039100041F2883281601021C5682B4043F48A63EC
:1039200030BCC360FFF7FEBE00F0FFFF70B48160E3
:1039300040F25144C66841F28832044D11213540AD
:103940002C43C46070BCFFF7EDBE00BF00F0FFFF6A
:1039500070B4816040F25244C66841F28832044D2E
:10396000122135402C43C46070BCFFF7DBBE00BFA2
:1039700000F0FFFF30B4064B41F28832816018211D
:10398000C5682B4043F48B6330BCC360FFF7CABEED
:1039900000F0FFFF70B4816040F25944C66841F204
:1039A0008832044D192135402C43C46070BCFFF7A8
:1039B000B9BE00BF00F0FFFF00220C2130B48260CE
:1039C00040F24C44C268044D1540044A2C43C46084
:1039D00030BCFFF7A7BE00BF00F0FFFF00E1F50518
:1039E00070B4826040F24744C66841F28832044DA8
:1039F000072135402C43C46070BCFFF793BE00BF65
:103A000000F0FFFF134B01460022186841F2883393
:103A100010B4114C8A60A2F58052A4FB0040CC681F
:103A20002240400A42F4806203FB00F3CA6002E0D5
:103A30004A6B120607D413F1FF33F9D24FF000405E
:103A40005DF8044B704740F2FF5300205DF8044BD3
:103A50008B63704710000020D34D62101C4B014651
:103A60004FF4D572186841F2883310B4194C8A604B
:103A7000A4FB0040184ACC68400A224003FB00F334
:103A800042F48962CA6003E04A6B12F0450F07D125
:103A900013F1FF33F8D24FF000405DF8044B70474C
:103AA000486B10F004000CD14B6B13F0400304D0B2
:103AB00040235DF8044B8B63704718465DF8044B58
:103AC0007047402304205DF8044B8B63704700BFB0
:103AD00010000020D34D621000F0FFFF70B4816031
:103AE00040F27744C66841F28832044D37213540B0
:103AF0002C43C46070BCFFF715BE00BF00F0FFFF91
:103B000030B4064D40F26942054C0D438560C168F2
:103B10000C40224330BCC260FFF7D8BD00001080CB
:103B200000F0FFFF10B40024054940F2C242846057
:103B3000C46821405DF8044B0A43C260FFF792BDA0
:103B400000F0FFFF10B4816040F2C942C168044C2C
:103B50000C4022435DF8044BC260FFF783BD00BFF9
:103B600000F0FFFF70B42C4B00242C4A83B084601B
:103B700040F24344C6681B68294DA2FB032335402D
:103B80005A0A41F288332C4303FB02F3C46003E07A
:103B9000426B12F0450F07D113F1FF33F8D24FF00B
:103BA000004003B070BC7047436B5C0711D4436B9B
:103BB00013F0010307D10269D2B2032A0FD001200A
:103BC00003B070BC704701238363184603B070BC18
:103BD000704704238363184603B070BC704700F13C
:103BE000140240F2FF54846301930192019B1B680D
:103BF00013F4604009D05A040AD413F4004F14BFE0
:103C00004FF480504FF48030CBE71B0C0B80C8E79B
:103C10004FF40050C5E700BF10000020D34D6210E4
:103C200000F0FFFF70B4816040F24D44C66841F27D
:103C30008832044D0D2135402C43C46070BCFFF721
:103C400071BD00BF00F0FFFF034B03EB8002034494
:103C50005268187A53681847C0000020084B1A5C55
:103C60005AB903EB8002191810B4012452681C548D
:103C70005DF8044B087A136818470020704700BFAE
:103C8000C000002030B4054C04EB800504446D688E
:103C9000207AAC68A44630BC604700BFC00000205A
:103CA00030B4054C04EB800504446D68207AEC6860
:103CB000A44630BC604700BFC0000020054B10B4D4
:103CC00003EB800403446468187A23695DF8044BAD
:103CD000184700BFC00000201D4A136830B4002BF5
:103CE00033D004689C420ED00024136943B10568A8
:103CF000AB421CD0022903D014B9122030BC70474B
:103D0000002030BC7047546883689C42ECD19468B2
:103D100043699C42E8D10023A1B902EB03129389C5
:103D2000B3F5807F30BC14BF002010207047556968
:103D300083689D42DED1436990699842DAD10123BC
:103D40000029EAD0102030BC70470124CDE700BF25
:103D500098000020244BF0B41A68046894421AD0EA
:103D60001D69A54206D002B3002D34D0002630468E
:103D7000F0BC70475F698668B742F4D19F694669B5
:103D8000B742F0D1012215015819808931BB411C7D
:103D9000561C8AB21AE086685D68AE42E0D1466978
:103DA0009D68AE42DCD10022EDE701261501002915
:103DB00082684FF0000703EB050140695C514A60DF
:103DC00014BF4FF48072012288608F812B443046EB
:103DD0009A81F0BC704702260122E7E70028C5D18E
:103DE000561C4FF48072F1E798000020016829B357
:103DF0000A4610B40C78202C1BD93A2C02D118E0BA
:103E00003A2B03D012F8013F202BF9D83A2B04D0DB
:103E1000002318465DF8044B704701318A420AD1ED
:103E2000302C08D1013200235DF8044B02601846A3
:103E300070472346EAE74FF0FF33EAE74FF0FF33DE
:103E400018467047D8B1036810B5044682B02BB14C
:103E50001A781AB18088DA88904204D009200023A9
:103E60000B6002B010BD58780191FFF7EDFE10F025
:103E700001000199F2D123680B6002B010BD00234C
:103E800009200B60704700BF01380A4411F8013B5C
:103E9000914200F8013FF9D1704700BFF8B5C56AFB
:103EA00000F130070446012340782A463946FFF7DF
:103EB000F7FEB0B9226AA369AA1AE0709A420ED23C
:103EC000A678012E01D80AE0A3691D44013E012312
:103ED00039462A466078FFF7E3FE012EF4D1002030
:103EE000F8BD0120F8BD00BFF8B5C37805465BB941
:103EF0002B78032B0FD0002268781146FFF7DEFEE7
:103F0000003018BF0120F8BDFFF7C8FF0028FAD124
:103F10002B78032BEFD12B79012BECD105F130015C
:103F200005F50C7200240B4603F8014B9A42FBD1B5
:103F300028695526EB68070A85F81802EA6985F8AA
:103F40001972070C000E85F81C3285F81A721F0AC8
:103F500085F81B02180C1B0E013285F81E02AA20E0
:103F600085F81D72612785F81F32522385F82E626D
:103F7000412685F82F02722085F8303085F83130DF
:103F8000012385F8140285F81502EA6285F832707B
:103F900085F8177285F8336085F816626878FFF740
:103FA0007FFE2C71A7E700BF38B5C37804460D46E5
:103FB00013B1FFF773FF68B92A46012304F13001FA
:103FC0006078FFF75FFE002816BF4FF0FF35002036
:103FD0000120E56238BD00BF4FF0FF330022994257
:103FE00010B50446C270C36234D194F82F124AF659
:103FF000552294F82E3243EA0123934228D194F8B3
:104000003030E92B05D0236B174A03F0FF1393429E
:1040100026D1B4F8681094F8672094F8663042EA24
:104020000122124943EA022323F07F438B4219D035
:10403000B4F8842094F8833094F8820043EA022391
:104040000B4A40EA0320904214BF0220002010BD1A
:10405000032010BDFFF7A8FF0028C6D0042010BD24
:10406000022010BD002010BDEB009000464154001E
:104070004641543300232DE9F0430B6085B00E46D2
:104080001746FFF7B3FE051EC0F2D880DFF838836D
:1040900008EB85031C6A002C00F0FE80346007F0FA
:1040A000FE0723787BB16078FFF7CEFDC1070AD405
:1040B000002F00F0FE8010F0040000F0C0800A2005
:1040C00005B0BDE8F083E8B2002360702370FFF70D
:1040D000C5FDC20700F1B6800FB14307EFD4002140
:1040E0002046FFF779FF022800F0B080042800F096
:1040F000DE80012800F2CC80002694F83C2094F861
:104100003B3043EA0223B3F5007F40F0C18094F8CE
:10411000472094F8463053EA022309D1B4F85610E8
:1041200094F8553094F8542043EA012342EA0323DB
:1041300094F84020A361511EA270012900F2A880CA
:1041400094F83D1088B26081002800F0A180481EDC
:10415000084240F09D8094F8425094F8410040EAB3
:10416000052000B21FFA80FC1CF00F0FA4F808C055
:1041700040F08E8094F8447094F8435055EA072537
:1041800009D1B4F852E094F8515094F8507045EACF
:104190000E2547EA052594F83FE094F83E7057EA6B
:1041A0000E2775D003FB02F207EB1C1991444D4515
:1041B0006ED3A5EB0905B5FBF1F1002968D04FF6E8
:1041C000F575A94277D840F6F57E374409EB06002D
:1041D0008D1C714500F2A2806561A062C4E9076789
:1041E000BCF1000F54D005EB450105F00105174463
:1041F000012205EB5105676205F2FF15B3EB552F60
:1042000046D34FF0FF338021C4E903332171B8F85E
:104210002430D8F80010013322708C429BB2A8F8E9
:104220002430E38002D10023C8F80030D8F81030E1
:1042300000209C4203D1C8F8100000E00B2005B01C
:10424000BDE8F083032005B0BDE8F0836D4604F5BA
:10425000FC7304F50E76284613F8061C0A4641B195
:104260001F8813F8011C13F8022C41EA072142EAC7
:104270000122103340F8042BB342EDD105F11007B1
:1042800055F8046B03205EB9AF42F9D104280ED073
:104290000D2005B0BDE8F0830C2005B0BDE8F0832B
:1042A00031462046FFF798FE0128EDD825E701208A
:1042B000C5E73846C3E794F85BC0023194F85A204A
:1042C000374409EB0605616142EA0C222762A562C8
:1042D0001043E66100B20028DAD18900B4F85E70BC
:1042E00094F85D5001F2FF1294F85C0045EA072152
:1042F000B3EB522F40EA01216162C9D394F8610007
:104300004FF0FF3294F860308021226143EA0023AD
:10431000E2602171012B0DD0032278E76561A06274
:10432000C4E90767BCF1000FB2D017446D00022248
:10433000676261E7711CE36A994204D02046FFF787
:1043400033FE0028E8D194F82F124AF6552294F84B
:104350002E32002043EA012320719342DCD1618E8A
:1043600094F8312094F8303042EA0122144943EAAB
:1043700002238B42D0D1B4F8161294F8152294F887
:10438000143242EA01220F4943EA02238B42C3D18D
:1043900094F81912032294F81D32B4F81A52B4F8A2
:1043A0001E0241EA052594F8181243EA002094F809
:1043B0001C3241EA052143EA0023C4E9033126E720
:1043C0005252614172724161980000202DE9F84318
:1043D000037804460D461646022B57D0032B36D0E1
:1043E000012B02D00220BDE8F88301EB5107016ADE
:1043F000C36A01EB5721994261D107F10108EB072C
:10440000C7F3080704F130094FEA582161D519F8BC
:104410000730012203F00F0343EA061309F80730BF
:10442000206AE36A0144E270994204D02046FFF713
:10443000BBFD0028D7D1C8F30808C6F30716C84447
:10444000012388F800600020E370BDE8F883016A6A
:10445000C36A01EBD511994236D1AD0004F13001A8
:1044600026F07046012705F4FE7500204B195A8886
:10447000120402F0704232434A55150A110C120E12
:104480005D709970DA70E770BDE8F883016AC36AFD
:1044900001EB1521994203D0FFF786FD0028A2D138
:1044A0006D0004F13003C6F30721012205F4FF7506
:1044B00000205E552B445970E270BDE8F883FFF789
:1044C00073FD002899D08EE7FFF76EFD0028C4D059
:1044D00089E709F807600122206AE36A0144E27073
:1044E00099420AD1C8F30808C6F30322C84498F8D1
:1044F000003023F00F061643A2E72046FFF754FDD5
:1045000000287FF470AFEDE701292CD94269914270
:10451000F8B5064625D203780C46022B3BD0032B78
:1045200023D0012B1DD101EB5107036AD0F82CC019
:1045300003EB572161454AD1C7F30802013703EB6A
:1045400057213244614592F8305048D1C7F30803EF
:10455000334493F83000E30745EA002045D50009CD
:10456000F8BD0120F8BD01207047016AC36A01EB64
:10457000D411994226D1A10006F1300301F4FE7155
:104580005A18585C5188537843EA012340EA0320C3
:1045900020F07040F8BD016AC36A01EB1421994212
:1045A00005D0FFF701FD10B14FF0FF30F8BD6100FD
:1045B00006F1300301F4FF715A18585C537840EA51
:1045C0000320F8BDFFF7F0FC0028D4D0ECE7FFF79C
:1045D000EBFC0028E8D1336AD6F82CC0ACE73046B3
:1045E000FFF7E2FC0028B1D0DEE7C0F30B00F8BD16
:1045F0002DE9F04107468846066841BBF5687369B6
:10460000F5B901252C4606E0012817D0431C15D02A
:10461000AC4219D0736901349C4203D3012D4FF091
:10462000020411D921463868FFF76EFF0028EBD14C
:10463000012C02D973699C421AD30120BDE8F08194
:104640009D4228BF0125DDE70020BDE8F08130460E
:10465000FFF75AFF0128F0D9421C06D07369834244
:10466000ECD84546CEE70128E7D14FF0FF30E5E72B
:104670004FF0FF3221463046FFF7A8FE68B9B8F187
:10468000000F0AD0B8F1010FD7D973699845D4D279
:10469000414622463046FFF799FE0028E3D1F460F8
:1046A000D6E90423023B9A4201D8013A32613379B8
:1046B000204643F001033371C0E700BF01293ED912
:1046C000F8B505680C4607466B698B422AD93ABB98
:1046D00028461BE00128284624D0731C31D0012C29
:1046E00020D96B699C4234461CD2FFF76FFEB0B9EB
:1046F000D5E90423991E501C8A4204D22A792861E4
:1047000042F001022A71B34208D938682146FFF706
:10471000FBFE2146064600220028DBD10020F8BD22
:10472000934201D80220F8BD012AFBD91146284640
:104730004FF0FF32FFF74AFE0028E6D0F8BD022016
:1047400070470120F8BD00BF2DE9F84F4569C369E6
:104750002035B5F5001F1AD2CBB1C5F308080F46B6
:104760000446D0F80090B8F1000F08D101338169F8
:10477000C36179B9B9F80830B3EB551F2DD909F1E8
:1047800030064644656100202662BDE8F88F0420AB
:10479000BDE8F88FB9F80A30013B13EA5523EED192
:1047A0004846FFF7B1FE0128824664D9B0F1FF3FC9
:1047B0001BD0D9F81430834219D909F13006871E6D
:1047C000023BC4F818A0BB4257D9B9F80A30D9F84F
:1047D000282007FB0327E761D3E700230420E361D8
:1047E000D6E74846FFF75AFB98B10120D0E7002FE3
:1047F000F3D0A1692046FFF7FBFE824600283ED099
:10480000012838D0B0F1FF3FEFD099F80330002BEA
:10481000E7D109F1300609F50C710022334603F89F
:10482000012B9942FBD1D9F81430AAF10207B9F84B
:104830000A109A1E974224D2D9F8282007FB012299
:10484000C9F82C2031B34FF0000B08E0D9F82C2028
:10485000B9F80A3001325B45C9F82C2013D94FF062
:10486000010348460BF1010B89F80330FFF716FBF3
:104870000028EBD0B9E702208AE70027ABE7072042
:1048800086E70022DCE7D9F81430A2EB0B02C9F866
:104890002C2095E78B46F8E70022816838B503465F
:1048A00042610568C9B92A78022A01D96A6A9AB9A7
:1048B0002A897AB16A6ADA6199615AB13035002081
:1048C0001D6238BD68698C1E0238844218D30022EC
:1048D000C3E90612022038BD11466A89002AF1D1C7
:1048E0001C46284605E00128F4D96B699842F1D2AC
:1048F0002068FFF709FE431C0146F4D1012038BDB2
:10490000A86A04FB0202DA61D6E700BF70B504466C
:104910000568FFF7C1FF064648B1042E08BF072609
:10492000304670BD01212046FFF70EFF40BBE36912
:104930002846EA6A1946934202D0FFF735FBF8B9D8
:10494000236A1A78E52A01D0002AEBD1E169EA6AE4
:10495000914204D02846FFF727FB98B9236A00212B
:1049600003F1200203F8011B9342FBD1206A0B22C2
:1049700004F12401FFF788FA01233046EB7070BD83
:104980000646CAE70646304670BD00BF2DE9F84F1F
:104990000B780E468346D0F800905C2B01D02F2B6D
:1049A00005D116F8013F2F2BFBD05C2BF9D000234B
:1049B000CBF8083033781F2B40F2CF800BF124075F
:1049C0000BF12F04DFF8B4A13B46202203F8012BA2
:1049D000A342FBD1751E00204FF0080C15F8013FD3
:1049E0000246202B02F1010E27D92F2B00F0A480C4
:1049F0005C2B00F0A1802E2B70D084456ED91A0656
:104A000002D5803B1AF80330222B71D02A225A4952
:104A100093426DD011F8012F002AF9D1A3F1610260
:104A2000192A01D8203BDBB23B547246013015F8FD
:104A3000013F02F1010E202BD7D87644002857D031
:104A40009BF82420E52A02D105228BF82420202B74
:104A50005846DBF800508CBF002304238BF82F301E
:104A6000FFF71AFF804678BBDBF81C10EB6A99420F
:104A700003D02846FFF798FA28BBDBF820301A78D5
:104A80002AB393F80BC00CF03F028BF80620DA7AB9
:104A9000110712D418469BF824E00133394610F868
:104AA0000B2BA2EB0E0242B913F8012B11F801EF08
:104AB0008342A2EB0E02F6D1FAB100215846FFF76D
:104AC00043FE0028D0D08046B8F1040F12D19BF8E5
:104AD0002F305A0749D54FF004080BE0BCF10B0FFB
:104AE00006D02E2B04D108204FF00B0C72469EE707
:104AF0004FF006084046BDE8F88F9BF82F305B0763
:104B0000F8D41CF0100F30D0DBF8142009F130037A
:104B100099F80010C2F3080203291344D87E9A7E44
:104B200042EA002205D1597D1B7D43EA012342EA76
:104B30000342CBF8082047E716F80E10B6445C296C
:104B400001D02F2916D102323244164612F8011B29
:104B50002F29FAD05C29F8D070E7802358468BF8CB
:104B60002F30BDE8F84FFFF797BE4FF005084046DD
:104B7000BDE8F88F764661E7B9A50008C49F000834
:104B800010B584B0144604ABCDE9001043F8041D01
:104B90001846FFF72BF9002821DB8000164B1A1866
:104BA000126A3AB119688A421FD019698A4219D02B
:104BB000002111700199034469B10022012C0A708F
:104BC000196205D101A96846FFF754FA04B010BD77
:104BD000104604B010BD0846196204B010BD0B2089
:104BE00004B010BD00211961E2E7002119601969C4
:104BF0008A42DDD1F6E700BF980000202DE9F0439E
:104C000091B00191002839D002F03F0704461546C3
:104C100003A901A83A46FFF72DFA064628B100235A
:104C20002360304611B0BDE8F083039B04A80199CE
:104C300005F01C080493FFF7A9FE034618BB9DF975
:104C40003F30002B30DB17F03E0F04A814BF4FF0AD
:104C500001094FF000094946FFF73EF80346B8F155
:104C6000000F00F0D68098B99DF8163013F0110FA0
:104C700018D16B0740F1C8800826D0E709263046D6
:104C800011B0BDE8F083B8F1000F01D10646C6E7C8
:104C9000042B40F0B580824B1A683AB11B692BB1E6
:104CA0001226BCE70726BAE70626B8E704A847F0AD
:104CB0000807FFF72BFE0028E8D100F03DFC0C9B15
:104CC000C5B2C0F30721C0F30742000ED9734FF0FD
:104CD000200C9D731A7458740C9BD9759D751A76A7
:104CE00058760C9A039B82F80BC00C9A1978D07EE8
:104CF000957E032945EA002500F0C08000219176C9
:104D0000D1761878032800F0B6800C990022012093
:104D10000A774A778A77CA77D87075B1294604A886
:104D2000D3F82C80FFF7CAFC0028AFD1039B013DCC
:104D3000DA6A904540F0A980DD6047F040074FF007
:104D40000109DA6A49460C9B04A8C4E90923FFF764
:104D500001F8206108B9022661E7DDF80CC00C9B60
:104D60009CF80010D87E9A7E032942EA002205D1E1
:104D7000587D197D41EA002142EA0142A2600020EB
:104D8000B3F81EE004F13005597F1A7F41EA0E2383
:104D9000BCF806E00146C4F800C042EA03222B46F4
:104DA000E062E26004F50C726075A4F804E0206231
:104DB000A061277503F8011B9342FBD1B9067FF56B
:104DC00030AFE768002F3FF42CAFBCF80A80A16831
:104DD0004FEA4828A76147452DD92068A7EB080767
:104DE000FFF792FB012801460CD9B0F1FF3F18BF35
:104DF000B845F2D3421CE0610CBF012300231BD154
:104E00001E460CE7E061A6E728073FF556AF039B77
:104E100097E700287FF43AAF9DF81630D90608D4FA
:104E2000AA0702D5DB073FF53DAF2807039B88D5CE
:104E300083E70426F3E6E161C7F30803002B3FF4A0
:104E4000F0AE039802394369023B994283D242890A
:104E5000836A01FB0232002A3FF47DAF02EB572246
:104E60002946012322624078FEF70CFF00283FF418
:104E7000D8AE0126D3E61175517546E7507D117DF8
:104E800041EA002145EA014538E718464146FFF767
:104E90008BF8039BDD6000283FF44FAF0646BEE66B
:104EA000980000202DE9F04F9A4685B000238B46EC
:104EB00003A91646CAF800300446FEF7C3FF804631
:104EC000002855D194F81580B8F1000F50D1227DFB
:104ED000910740F1A480A369F34200D3DE43002E82
:104EE00074D004F130020192C3F3080000284DD1C0
:104EF000039A580AB2F80A9009F1FF3919EA000931
:104F00000FD1002B66D1A068002800F09B800128FB
:104F100000F0B480431C27D0A368E061039A03B972
:104F2000A06094F91430002B6BDBE7695369023FF2
:104F3000023B9F4280F0A2805389916A03FB0717CE
:104F4000002F00F09B80750A4F4415D009EB050136
:104F500050783A469942594688BFA3EB09052B463B
:104F6000FEF79EFE00285DD04FF0010884F8158002
:104F7000404605B0BDE8F08F236AA069BB4202D06D
:104F8000E368834254D8C0F308002762C0F5007577
:104F9000019B5946B542184428BF35462A46FEF7BC
:104FA00073FF237D63F07F032375A369AB44E1683E
:104FB0002B44DAF8002099422A44A36138BF1946ED
:104FC000761BE160CAF800208ED1227D42F04002BB
:104FD0002275CDE7E36A002B3CD021681A1D5B687F
:104FE0004989B0FBF1F02BB9EFE7C01A52F8083F3E
:104FF000002BEAD08342F8D953681844002886D1A0
:10500000E3E750780123226A0199FEF749FE002860
:10501000AAD1237D039A03F07F03237585E74FF020
:105020000708A5E7216AC91BA9421BD36D02BCE78B
:10503000507801233A460199FEF724FE002893D1C7
:10504000A069A0E749462046FFF7D2FA00287FF47E
:105050005EAFBAE7E1692046FFF7CAFA00287FF49D
:1050600056AFB2E70BEB41214FF400720198FEF707
:105070000BFF237D03F07F032375D7E74FF0020872
:1050800084F8158074E700BFF0B583B0044601A929
:10509000FEF7D8FE002839D1237D5A0636D51B06E7
:1050A0003DD400F049FA019E616A0546F36A9942CF
:1050B0002ED1A36ADA7A42F02002DA72A26821685D
:1050C000C2F307209A76D8760978032903D1120C07
:1050D000110A1A755975E2682F0A290C9D75100A74
:1050E0001A77DF752D0E587701271976100C0021DD
:1050F000120E98773046DA775D769974D974F77026
:10510000FEF7F2FE237D23F04003237503B0F0BDCC
:105110003046FEF749FF0028F8D1019EC9E7019803
:105120000123226A04F130014078FEF7B9FD20B96D
:10513000237D03F07F032375B3E70120E6E700BF7B
:1051400030B583B00446FFF79FFF08B103B030BD10
:1051500001A92046FEF776FE0028F7D12369013B1E
:10516000012B0DD81B010B49CD18AA89B2F5807F00
:105170000ED03AB90022CA500023236003B030BDDC
:105180000220E3E7013A92B2AA81002AF4D1F1E7C2
:10519000A881EFE7980000202DE9F04F83B00E467C
:1051A000044601A9FEF74EFE054600284CD1657D58
:1051B000002D49D1E26A002A4AD0701C00F0978085
:1051C000E3689E4228BF1E46A661002E3CD0701E9A
:1051D000216853680432400A4989B0FBF1F133B9C0
:1051E000C1E0C91A52F8083F002B00F0BC808B4286
:1051F000F7D953680B449A1E0199E3614B69023B4E
:10520000934240F2A7804F898B6A02FB0733002B41
:1052100000F0A080C6F30806B6B17E1E226A3040B8
:10522000C618B24210D094F9143004F1300748780F
:10523000002BC0F2EC80394601233246FEF722FDF6
:10524000002840F08D802662284603B0BDE8F08F2C
:10525000E368B34204D2227D12F0020F08BF1E465B
:105260000022A369A261002EEED0019AB2F80A8052
:105270004FEA4828002B34D0013B721EB3FBF8F1F3
:10528000B2FBF8F28A422CD3C8F10002E76913405E
:10529000F61AA361002F00F08B80464512D873E008
:1052A000FFF7A6F90746002800F0BE807B1C57D008
:1052B000012F4FD9019B5B69BB424BD9B045A36914
:1052C000E76161D2227D43443946A6EB080612F01D
:1052D000020FA3612046E3D12068FFF715F90746C6
:1052E000E4E7A768002F43D00023E761D2E7A7686F
:1052F00002F1040AD2F800904FF00208BFB9C84585
:10530000C2F8008032D80023CAF800309CE708F1C8
:105310000208C14505D3534643F808BBCAF80470D8
:105320009A46019B5B69834240F2828007463E4673
:105330004FF0000B03E0411C12D08342E7D131460D
:105340002068FFF7E1F8012806F101030BF1010BDA
:105350000646F0D802252846657503B0BDE8F08FF3
:105360000125657570E76FF0010245E711256BE7D0
:1053700039462046FFF73CF901280746EAD0421C8F
:10538000EED0A060A369B0E73344C6F30802A3617E
:10539000002A4BD00199B81E4A69023A9042D9D2EC
:1053A0004F898A6A00FB0727002FD3D007EB5627C7
:1053B000E268C3F308019A4204D2227DE36042F01E
:1053C0004003237500293FF43FAF226ABA423FF4FD
:1053D0003BAF94F9143004F130060199002B487862
:1053E00008DB314601233A46FEF74CFC0028B7D1D2
:1053F000276229E701233146FEF752FC0028AFD18E
:10540000237D019A03F07F0323755078E9E7012398
:105410003946FEF745FC0028A2D1237D019A03F00E
:105420007F032375507806E7A369C1E71746BFE7F6
:10543000E26A64E7114B5A7A0AB101207047F0B56D
:1054400002F0FF0493F809E05E7A4FF03A0C5D7ABF
:105450002F275A7A03EB86061D4403F80E40D2B27A
:1054600070602C72501C3032C0B2587220460A70E4
:10547000CC7081F801C08F70F0BD00BFC00000206B
:1054800000B5012383B08DF8073000F057F808B954
:105490008DF807009DF80730012B03D0022003B0E0
:1054A0005DF804FB024803B05DF804EBFDF79CB91E
:1054B000D808002000B583B0009313460A46014681
:1054C0000448FCF7A7FD003018BF012003B05DF8C9
:1054D00004FB00BFD808002000B583B0009313463A
:1054E0000A4601460448FCF7ABFE003018BF012015
:1054F00003B05DF804FB00BFD808002008B50348DE
:10550000FDF7A4F9043818BF012008BDD808002011
:1055100001460148FDF784B9D808002008B50349C1
:105520000348FFF787FF034B187008BD38030020BE
:10553000A0A00008340300200020704708B54FF4F5
:1055400000510348FBF716FCB0FA80F0400908BD93
:1055500000080240082807D004D9402804D0802839
:1055600002D070470428FCD1064B186810B10368BC
:10557000DB68184710B5044B1C21044A044803F0AB
:105580007DFB00BF08010020FCA5000864A0000806
:1055900008A6000870B5B4B0302200214FF4803561
:1055A00007A8022403F006FC0023842213A819464E
:1055B00006930926CDE90233CDE9043303F0FAFB63
:1055C000FBF796FC274B284A07A8196C41F080513D
:1055D000196401211B6C03F080530093009B136836
:1055E00023F4404343F40043136013684FF4A8725C
:1055F00008954FF4800503F440430C911921079658
:105600000193019B07230D94119410921293CDE9FD
:105610000E51FBF7FFFC00B1FEE703464FF480524A
:105620000F264FF4A05502A8052104930394029677
:10563000CDE90552FBF7EEFE034600B1FEE70B494C
:105640004FF4007213A8249329932C932E93139153
:105650001F92CDE93233FBF79BFF00B1FEE734B078
:1056600070BD00BF00380240007000406048A100DB
:105670002DE98048A1B00024FAF7C2FF0225FFF708
:1056800089FFD24B1694102115944FF008081794F7
:10569000224618944FF00E0B199403271E6B4FF0FF
:1056A0000C0ACB484FF00A0946EA010C0126C3F860
:1056B00030C0D3F830C00CEA010CCDF804C0DDF8DE
:1056C00004C0D3F830C04CF0400CC3F830C0D3F85D
:1056D00030C00CF0400CCDF808C0DDF808C0D3F89D
:1056E00030C04CEA050CC3F830C0D3F830C00CEA27
:1056F000050CCDF80CC0DDF80CC0D3F830C04CEA76
:10570000080CC3F830C0D3F830C00CEA080CCDF850
:1057100010C0DDF810C0D3F830C04CF0040CC3F852
:1057200030C0D3F830C00CF0040CCDF814C0DDF854
:1057300014C0D3F830C04CEA060CC3F830C0D3F81C
:1057400030C00CEA060CCDF818C0DDF818C0D3F84C
:1057500030C04CF4007CC3F830C0D3F830C00CF437
:10576000007CCDF81CC0DDF81CC0D3F830C04CF470
:10577000807CC3F830C0D3F830C00CF4807CCDF806
:1057800020C0DDF820C0D3F830C04CF4806CC3F8E2
:1057900030C0D3F830C00CF4806CCDF824C0DDF8F4
:1057A00024C0D3F830C04CF0200CC3F830C0D3F87C
:1057B00030C00CF0200CCDF828C0DDF828C0D3F89C
:1057C00030C04CF0800CC3F830C01B6B03F080037A
:1057D0000B930B9BFBF7D4FA22464FF401417D4813
:1057E000FBF7CEFA324620217B48FBF7C9FA224666
:1057F00041467A48FBF7C4FA22464FF48051784874
:10580000FBF7BEFA22464FF401517648FBF7B8FA8F
:10581000224641467448FBF7B3FA102315A9734892
:10582000CDF864B0CDE91535CDE91744FBF784F91F
:1058300015A96E48CDF85480CDE91644FBF77CF9E4
:105840004FF4D04315A9684815930B231897199363
:10585000CDE91654FBF770F94FF6837315A9634829
:1058600015931897CDF864A0CDE91654FBF764F9A9
:1058700043F6234315A9564815931897CDF864901D
:10588000CDE91654FBF758F9102315A95048159384
:105890001696CDE91744FBF74FF9802315A94E481A
:1058A0001593CDE91654CDE91848FBF745F94FF4A7
:1058B000014315A9474815931894CDE91664FBF7E1
:1058C0003BF948F2331315A947481593CDE916540F
:1058D000CDE9187AFBF730F94EF6FF7315A9444865
:1058E0001593CDE91654CDE9184BFBF725F94FF484
:1058F000805315A93E481593CDE91644FBF71CF9D2
:105900004CF2037315A934481593CDE91654CDE92B
:10591000187AFBF711F94FF4E05315A92D481593A8
:10592000CDE91654CDE91879FBF706F9F02315A94E
:105930002B481593CDE91654CDE91849FBF7FCF82F
:10594000F72315A925481593CDE91654CDE9184B31
:10595000FBF7F2F84FF4805315A92348CDE915352C
:105960000923CDE917441993FBF7E6F84FF4806358
:1059700015A91D481593CDE91654CDE91849FBF733
:10598000DBF8202315A9144815931894CDE9166463
:10599000FBF7D2F8174B15A911481693CDF854A070
:1059A0001796FBF7C9F84FF4005315A91248159341
:1059B000CDE91644FBF7C0F84FF63F0315A90F4891
:1059C0001593CDE91654CDE9187A19E00038024054
:1059D0000004024000000240000C02400028024087
:1059E00000200240001C024000180240001002404B
:1059F0000024024000003110000802400014024060
:105A0000FBF79AF84FF4464315A9B7481593CDF81C
:105A100064B04FF0040B1894CDE91654FBF78CF8E2
:105A200015A9B24817941894CDE91586FBF784F8A8
:105A3000102315A9AE481794CDE91534FBF77CF86F
:105A400048F2040315A9AB481593CDE91644FBF7BA
:105A500073F84FF4805315A9A348CDE91536CDE965
:105A60001744FBF769F84FF4015315A9A1481593A2
:105A70001894CDE91664FBF75FF84FF400529E4B83
:105A800015A999481592CDE91634FBF755F810235E
:105A900015A99848CDF86490CDE91535CDE917479B
:105AA000FBF74AF8282315A992481593CDE9165417
:105AB000CDE9187AFBF740F8904AC02315A9904821
:105AC0001593CDE91626FBF737F815A98D48CDF8C3
:105AD00064A0CDE91585CDE91747FBF72DF805231F
